:100000000C945D050C94B51A0C94A4050C94A405ED
:100010000C94A4050C94A4050C94A4050C94A405BC
:100020000C94A4050C94A4050C94532E0C94252F29
:100030000C94E2280C94A4050C94A4050C94A4053B
:100040000C94A4050C94A4050C94A4050C94A4058C
:100050000C94A4050C942F290C94A4050C94A405CD
:100060000C94A4050C94A4050C94A4050C94A4056C
:100070000C94A4050C94A4050C94A4050C94A4055C
:100080000C94A4050C94A4050C94A4050C94A4054C
:100090000C94A4050C94A4050C94A4050C94A4053C
:1000A0000C94A4050C94A4050C94A4056115641586
:1000B0006915701575157A157F15841589158E15B6
:1000C000931598159A159D15A015A315A615A91594
:1000D000AB15B015C81EC81EFA1EFA1E471F7B209E
:1000E0007B207B20651FFA1F0B200B206B207B20C1
:1000F0007B20742017211721292129212021292142
:1001000029212921172117212521292129212521CB
:10011000922FB92FB130B92FB13005302830B1301E
:100120007F308E30165C1E001F0020002100220050
:100130002B0014001A0008001500170029610400A4
:100140001600070009000A0035621D001B000600AA
:10015000190005000000000028000151E3002800FC
:100160002A00270026002500240023003100130068
:1001700012000C0018001C00340033000F000E00A9
:100180000D000B002D7238003700360010001100F2
:10019000000000002C000251E6002C003500010098
:1001A00001000100010001000100F500F000F40071
:1001B000F90001000100F200F100F300FA00010073
:1001C0000100FB000100FC00010001000000000034
:1001D00001000100010001004C002E002D00610013
:1001E00060005F0001002E022D025E005D005C00D9
:1001F0000100010001005B005A00590001000100EC
:100200000100010062006200000000002A000100FD
:1002100001002A0045003A003B003C003D003E0042
:10022000010001000100AA00A800A90001000100CE
:100230000100AC00AE00AB000100010001000100B4
:1002400001000100000000000100010001000100A8
:10025000440043004200410040003F000100010013
:1002600030022F0230002F00010001004F00520029
:1002700051005000010001000100010001000100D7
:100280000000000001000100010001000100010068
:100290000100010001000100010001000100010056
:1002A0000100010001000100010001000100010046
:1002B0000100010001000100010001000000000038
:1002C0000100010001000100010001000100010026
:1002D00001000100010001000100010030022F02B5
:1002E000010001000100010030002F0001000100A9
:1002F00001000100010001000000000001000100F8
:100300000100010044454255473A20646973616227
:100310006C65642E0A0044454255473A20656E617B
:10032000626C65642E0A000A0025303862003A20AB
:100330000025303258000A722F63203031323334B6
:100340003536370A007267626C6967687420616EBF
:10035000696D6174696F6E207469636B207265707A
:100360006F727420746F20736C6176650A00726717
:10037000626C696768742074696D65722064697362
:1003800061626C652E0A007267626C69676874202E
:1003900074696D657220656E61626C65642E0A0019
:1003A0007267626C6967687420736574206873761D
:1003B000205B4E4F454550524F4D5D3A2025752CE0
:1003C00025752C25750A007267626C696768742050
:1003D00073657420687376205B454550524F4D5DC0
:1003E0003A2025752C25752C25750A007267626CDC
:1003F00069676874207261696E626F7720736574D3
:10040000206873763A2025642C25642C25642C25DD
:10041000750A007267626C69676874206469736149
:10042000626C65205B4E4F454550524F4D5D3A2002
:100430007267626C696768745F636F6E6669672E66
:10044000656E61626C65203D2025750A00726762E9
:100450006C696768742064697361626C65205B45D0
:100460004550524F4D5D3A207267626C69676874FF
:100470005F636F6E6669672E656E61626C65203DB5
:100480002025750A007267626C6967687420656E62
:1004900061626C65205B454550524F4D5D3A20725C
:1004A00067626C696768745F636F6E6669672E6503
:1004B0006E61626C65203D2025750A007267626C72
:1004C0006967687420746F67676C65205B45455089
:1004D000524F4D5D3A207267626C696768745F6362
:1004E0006F6E6669672E656E61626C65203D2025C2
:1004F000750A007267626C69676874206D6F646565
:10050000205B4E4F454550524F4D5D3A2025750AB0
:10051000007267626C69676874206D6F6465205B48
:10052000454550524F4D5D3A2025750A007267626D
:100530006C696768745F696E6974207267626C6960
:100540006768745F636F6E6669672E6D6F646520A0
:100550003D20302E20577269746520646566617590
:100560006C742076616C75657320746F20454550FE
:10057000524F4D2E0A007267626C696768745F693A
:100580006E6974206565636F6E66696720697320A4
:100590006E6F7420656E61626C65642E0A0072670E
:1005A000626C696768745F696E69742073746172E4
:1005B00074210A007267626C696768745F696E69AA
:1005C000742063616C6C65642E0A007267626C69EA
:1005D0006768745F636F6E6669672E7370656564C4
:1005E000203D2025640A007267626C696768745F49
:1005F000636F6E6669672E76616C203D2025640A04
:10060000007267626C696768745F636F6E666967C2
:100610002E736174203D2025640A007267626C6944
:100620006768745F636F6E6669672E687565203DE5
:100630002025640A007267686C696768745F636F7D
:100640006E6669672E6D6F6465203D2025640A0023
:100650007267626C696768745F636F6E6669672E44
:10066000656E61626C65203D2025640A00726762D8
:100670006C696768745F636F6E6669672045455093
:10068000524F4D3A0A0032190A00047F3F1F64326C
:1006900014643214783C1E1E140A052223252628D1
:1006A000292A2C2D2F3032333536383A3B3D3E4007
:1006B00042434547494A4C4E5051535557595A5C4D
:1006C0005E6062646668696B6D6F71737577797B64
:1006D0007D7F81838587898A8C8E90929496989A63
:1006E0009C9E9FA1A3A5A7A8AAACAEAFB1B3B4B678
:1006F000B8B9BBBCBEBFC1C2C3C5C6C7C9CACBCCD3
:10070000CDCED0D1D2D2D3D4D5D6D7D7D8D9D9DAA5
:10071000DADBDBDBDCDCDCDCDCDDDDDDDDDCDCDC1A
:10072000DCDCDBDBDBDADAD9D9D8D7D7D6D5D4D342
:10073000D2D2D1D0CECDCCCBCAC9C7C6C5C3C2C117
:10074000BFBEBCBBB9B8B6B4B3B1AFAEACAAA8A774
:10075000A5A3A19F9E9C9A98969492908E8C8A892C
:10076000878583817F7D7B79777573716F6D6B6909
:1007700068666462605E5C5A5957555351504E4CDE
:100780004A4947454342403E3D3B3A38363533328D
:10079000302F2D2C2A292826252322FFAA7F5540D9
:1007A0006261636B6C6967687420737465703A206A
:1007B00025750A006261636B6C69676874206469FF
:1007C0007361626C650A006261636B6C696768746F
:1007D00020656E61626C650A006261636B6C6967BB
:1007E000687420746F67676C653A2025750A00622B
:1007F00061636B6C696768742064656372656173BB
:10080000653A2025750A006261636B6C69676874DC
:1008100020696E6372656173653A2025750A000070
:1008200001010101010101010102020202020202B1
:100830000202030303030303030304040404040484
:10084000040505050505060606060607070707074A
:1008500008080808090909090A0A0A0B0B0B0C0CFD
:100860000C0D0D0D0E0E0E0F0F0F10101111111299
:100870001213131414151516161717181819191A18
:100880001A1B1B1C1D1D1E1E1F202021222223247B
:1008900024252626272829292A2B2C2D2D2E2F30BA
:1008A000313232333435363738393A3B3C3D3E3FCE
:1008B000404142434445464748494A4C4D4E4F50BB
:1008C000515354555658595A5B5D5E5F6162646579
:1008D0006668696B6C6D6F7072737577787A7B7D03
:1008E0007E8082838587888A8C8E8F919395969857
:1008F0009A9C9EA0A2A3A5A7A9ABADAFB1B3B5B773
:10090000BABCBEC0C2C4C6C9CBCDCFD1D4D6D8DB49
:10091000DDDFE2E4E7E9EBEEF0F3F5F8FAFDFF0ADC
:10092000002530325820006B6579626F6172645F18
:100930007265706F72743A20000A002530325800D8
:100940006B6579626F6172645F7365745F6C656417
:100950003A20005B735D004B6579626F61726420C1
:1009600073746172742E0A005B575D005B535D0007
:100970005B525D005B445D005B435D0026034B0002
:1009800065006500620069006F0020004900720088
:100990006900730020005200650076002E002000E0
:1009A000320000000E034B00650065006200690024
:1009B0006F0000000403090409025B00030100A0AA
:1009C000FA090400000103010100092111010001DD
:1009D0002240000705810308000A09040100010301
:1009E00000000009211101000122320007058203E5
:1009F00020000A090402000203000000092111017D
:100A000000012222000705830320000107050303DC
:100A1000200001120110010000000810CB56220036
:100A200002010200010631FF0974A10109751500D8
:100A300026FF009520750881020976150026FF0023
:100A4000952075089102C005010980A1018503194F
:100A5000012AB700150126B700950175108100C065
:100A6000050C0901A101850419012AA0021501261E
:100A7000A002950175108100C005010906A10105BC
:100A80000719E029E71500250195087501810295F0
:100A900001750881010507190029FF150026FF00CF
:100AA0009506750881000508190129059505750148
:100AB0009102950175039101C00011241FBECFEF73
:100AC000DAE0DEBFCDBF04B603FE27C08091350358
:100AD00090913603A0913703B09138038730904B43
:100AE000A740B04BD1F41092350310923603109208
:100AF00037031092380314BE84B7877F84BF0FB6C4
:100B0000F894A895809160008861809360001092AD
:100B100060000FBEE0E0F8E3099511E0A0E0B1E06D
:100B2000E2ECF4E602C005900D92A23EB107D9F7BF
:100B300023E0A2EEB1E001C01D92A533B207E1F7B8
:100B40000E948A2B0C945F320C940000FF93EF9369
:100B5000E091E201F091E301309709F00995EF91FE
:100B6000FF910895FC018591803011F0EFDFFBCFFC
:100B70000895FF27E0E230E247FF0CC0419597FF60
:100B800009C0EDE26095709580959095611D711D8D
:100B9000811D911D27FF02C0219530E350E2AA2755
:100BA000660F771F881F991FAA1FA41710F0A41B98
:100BB00063955A95A9F7AA3008F0A95FA05DAF9395
:100BC000F395611571058105910541F7ED3211F439
:100BD000EF93F395F21718F43F93F395FBCF8F91B2
:100BE000B5DFFA95E1F70895E991F99185918030A3
:100BF00021F0853219F0AADFF9CF089520E0E894BA
:100C000055915532C1F3503311F4689455915A33CC
:100C100048F4505390F3220F022E220F220F200D82
:100C2000250FF4CF0EF4219589919991533619F33C
:100C3000533729F1533559F1BC0188279927E89496
:100C40005C3621F48991999168945591543639F420
:100C500046EF7EF077FF0DC08FEF9FEF0AC055374C
:100C60004AE039F0583540E121F0523642E009F0CF
:100C70000895FF93EF937DDFEF91FF91B7CFFF933F
:100C8000EF93FC0181918030B9F360DFFBCFFF93DC
:100C9000EF9368DFF1CFDF93CF93CDB7DEB7259623
:100CA000A3DFCF91DF9108950E94541683E00E9444
:100CB00004170E941D134FEF6FEF80E00E94510F49
:100CC0008BE00E941A1360E070E0CB010E94C32702
:100CD0000C94CF2781E0089581E008950C946C0670
:100CE00008950C9470061F93CF93DF9300D000D02B
:100CF0001F92CDB7DEB749835A836B8330915D0273
:100D000089819A81311114C0662359F0222349F058
:100D10000E945226182F682F89819A810E94F925F6
:100D200003C00E942526182F69817A81812F04C073
:100D30000E94522669817A810F900F900F900F9038
:100D40000F90DF91CF911F910C946207FC01262F29
:100D5000408151816281738184810C947306CF93A9
:100D6000DF93EC0160E00E94A606BE01DF91CF9107
:100D70000C9471060E948927811102C00E943228BA
:100D80000E94A9170C94BD090C94B90908950E94FA
:100D900005210E94C6062FEF84E39CE0215080408D
:100DA0009040E1F700C000000C9455290F931F9369
:100DB000CF93DF93EC0161E00E94A6068C01BE0197
:100DC0000E946E06882309F450C0BE01C8010E942B
:100DD0000A17882309F449C0BE01C8010E945718A8
:100DE000882309F442C0BE01C8010E94A9188823C3
:100DF000E1F1BE01C8010E94D4198823B1F1BE01FE
:100E0000C8010E944B15882381F18A81882331F122
:100E100001308CE5180751F00F3D8CE51807D9F02B
:100E200001151C45D9F40E94C7061FC08091D3024A
:100E3000C82FC095C170C0FB80F98093D302CC232A
:100E400029F086E193E00E94B2050FC084E093E0B0
:100E50000E94B2050BC00E94322807C0CE01DF916C
:100E6000CF911F910F910C946A06C0E08C2FDF91F7
:100E7000CF911F910F9108958295982F937344E01D
:100E8000949F900111248C7C86958695282B822F27
:100E90008575880F2A7A2695822B089508950C94DB
:100EA0004E0781E008950C945107CF93C82F0E94FC
:100EB0004F078C2F0E945307CF91089580E090E058
:100EC000089508952CE3829FC0011124FC0126E0BF
:100ED000729FE00DF11D1124E60FF11DEE0FFF1FB3
:100EE000EC5DFE4F859194910895880F991FFC0148
:100EF000E95DFC4F859194910895CF93DF930E9413
:100F000062070E948F08EC018115904508F043C0EC
:100F1000C11580E4D80708F0CBC0C03ED10528F544
:100F2000C03CD10508F0B3C0C83AD10578F4C53A41
:100F3000D10508F0A4C0C130D10509F4ECC008F413
:100F4000E8C0C430D10508F0E6C0E3C0CF3BD1050E
:100F500008F0DFC0C85AD0E0CC0FDD1FCB5CDE4FFD
:100F60000990D881C02DD464D6C0C11590E2D907AC
:100F700050F4C11521E0D20708F0CDC0C83ED1051C
:100F800008F4C9C0C6C0C11580E3D80708F086C000
:100F9000CE019F707FC0C11595E5D90708F043C009
:100FA000C11524E5D20708F09AC0C11582E5D8071B
:100FB00008F5C11591E5D90708F07DC0CE0174E0B0
:100FC000969587957A95E1F783709C2F937021E031
:100FD00030E002C0220F331F9A95E2F73C68382BAD
:100FE000CF70C695C69580E2C89FE0011124C22B40
:100FF000D32B91C09E01237033278C2F8695869525
:10100000C115D34508F05CC0C1E0D0E002C0CC0FF0
:10101000DD1F2A95E2F720E2829FC0011124C82B30
:10102000D92BDC6878C0C11529E5D207A0F4C11519
:1010300088E5D80708F058C0C11596E5D90708F02B
:1010400068C08C2F0E9423098F71C82FD0E0DC2F3D
:10105000CC27D06260C0C1152AE5D20708F449C088
:10106000CE0190568115904208F053C08D2F8F719C
:101070000E942309DD27D0628F71D82B4CC0C55A3E
:10108000D0E0CD59DE4FC881D0E0D06444C0CE015D
:10109000805C91090E947507EC013DC0CE01992743
:1010A000D3FF03C0EC01D86C36C0EC01D06C33C068
:1010B000DF70D06A30C0DC2FCC27C16FD06A2BC064
:1010C000C1E0D0E002C0CC0FDD1F2A95E2F720E29C
:1010D000829FC0011124C82BD92BDA681CC0DC2FD9
:1010E000CC27C46FD06A17C0DC2FCC27C06FD06A62
:1010F00012C08C2F8F700E94230994E0D695C7955B
:101100009A95E1F7CF70D0E0DC2FCC27D069C82BBF
:1011100002C0C0E0D0E0CE01DF91CF9108958238C7
:10112000910569F1B0F48133910509F46DC048F47B
:101130008932910509F463C08A32910509F469C0C6
:1011400008958533910509F455C089339105B9F0A7
:101150000895833E910569F138F4803E9105B1F020
:10116000823E910509F10895863E9105A9F1873ED9
:101170009105B9F1843E910509F064C023C0209126
:10118000260320FD4FC021FD4DC008958091260308
:1011900080FD44C08091270380FF44C080912603D6
:1011A00084FD42C083EE4DC08091260382FF38C08B
:1011B000F5CF8091260382FD33C08091270380FD07
:1011C00031C0ECCF8091270381FF32C0809126038C
:1011D00084FD2AC087EE35C08091260383FF26C098
:1011E000F5CF8091260383FD21C08091270381FDE7
:1011F0001FC0ECCF8091260385FD1CC01DC08091CF
:10120000260385FD19C016C08091260386FD16C0F1
:1012100017C08091260386FD13C010C089E311C05A
:1012200082EE0FC080EE0DC080E00BC086EE09C0DC
:1012300084EE07C089E205C085E303C08AE201C0ED
:1012400081E390E008959091260392FF0DC0282F2E
:101250002871283019F4877F846006C0282F2471F4
:10126000243011F48B7F886093FF0DC0282F2871E4
:10127000283119F4877E846106C0282F2471243117
:1012800011F48B7E88612091270320FF0DC0382F39
:101290003871383019F4877F816006C0382F31717A
:1012A000313011F48E7F886021FF0DC0282F287106
:1012B000283119F4877E816106C0282F21712131E0
:1012C00011F48E7E886194FD877E0895E82FF0E00A
:1012D000E451FD4F80810895CF92DF92EF92FF920B
:1012E0000F931F93CF93DF9386E393E00E94B205A1
:1012F0008CEEE82E82E0F82EC0E0D0E091E3C92E1B
:1013000093E0D92E09E213E0DF93CF93DF92CF92DF
:101310000E944B068EE293E00E94B205F701819194
:101320007F010E943C071F928F931F930F930E948F
:101330004B0687E293E00E94B20521968DB79EB7D7
:1013400008960FB6F8949EBF0FBE8DBFCA30D10568
:10135000D9F6DF91CF911F910F91FF90EF90DF9021
:10136000CF90089580EA8A95F1F7089508950C9436
:10137000B6090C94B7090C94B6090C94BB09F894FF
:10138000E82FE295EF70F0E031A1282F2F7081E077
:1013900090E001C0880F2A95EAF7982F9095932343
:1013A00091A392A1892B82A37894089508950F9315
:1013B0001F93CF93DF930E94240B809104018091AF
:1013C0000401811102C095E001C090E09093F70202
:1013D00085E0891B8093F60287E90E94BF0986ECAD
:1013E0000E94BF0984E30E94BF0982E90E94BF09ED
:1013F00084E90E94BF09C6E6D1E00CE611E08991BC
:101400000E94BF090C171D07D1F7E2EEF2E0ACEE27
:10141000B2E011921D9282E0EC3EF807D1F785E030
:101420000E94CE0A0E94BA06DF91CF911F910F91C0
:101430000C94380B0E94050B882309F18091F60269
:1014400090E084519D4F0E94680B811114C08091DF
:10145000E4018F5F8093E401863078F0E091F6023A
:10146000F0E0E451FD4F80E090E01192019685306C
:101470009105D9F702C01092E4010C94C406809142
:10148000F70290E084519D4F0E94910B0C94D60975
:101490008F929F92AF92BF92CF92DF92EF92FF9284
:1014A0000F931F93CF93DF938CE6A82E81E0B82E85
:1014B000C2EED2E091E7E92E91E0F92E912C01E005
:1014C00010E06501F5018081F894E82FE295EF7056
:1014D000F0E021A18F70A80102C0440F551F8A952A
:1014E000E2F7CA01922F982B91A392A180958923AC
:1014F00082A378940E94B209E6E6F1E020E030E0B1
:10150000812C4191A42FA295AF70B0E090968C9160
:1015100090E04F7002C0959587954A95E2F780FD5F
:1015200007C0802F022E01C0880F0A94EAF701C07D
:1015300080E0882A2F5F3F4F2630310511F75FEF9B
:10154000A51AB50AF60180810E94BF098881881614
:1015500019F0888281E001C080E0982A2196EA147F
:10156000FB0409F0AECF6091F70270E064517D4F4B
:10157000292D45E082EE92E00E94CF0A0E941A0ACD
:10158000892DDF91CF911F910F91FF90EF90DF9008
:10159000CF90BF90AF909F908F9008950895FF9245
:1015A0000F931F93CF93DF938C01F62ED72FC42F69
:1015B000222349F081E08093E7010E94142990934F
:1015C000E6018093E5018091E7018823C1F08091D5
:1015D000E5019091E6010E942029069780F0EF2D09
:1015E000FD2FD8014C2F50E0CD01801B910B8417AB
:1015F00095071CF48D918193F7CF1092E701DF914D
:10160000CF911F910F91FF9008958091E801811172
:1016100012C08091D80080618093D8008AE18A95B9
:10162000F1F700C08091D90080FD02C082E001C0C6
:1016300081E08093E80181E09091E801913009F028
:1016400080E008950C94050B0E94220B8093040106
:101650008091040166E0882311F080E001C086E0FB
:101660000E943F0C0E94050B81110C943F0B0895C2
:101670000E94050B811102C00C94450B089562E095
:1016800070E085E091E00C94631A62E070E085E020
:1016900091E00C946C1A0E944612882361F081EF4D
:1016A00091E00E944C1281E090E00E94451B892B42
:1016B00011F40C94491208958091F001883039F4A6
:1016C00060E081EF91E00E941B141092F0010895F8
:1016D000CF93DF93D82FC92F0E944B0B80E090E06F
:1016E0000E94451B892BC9F4ED2FFC2F80E090E070
:1016F000DC01A551BE4F2C912193019685309105B7
:10170000B9F70E94BA15882319F00E94BE1501C0CE
:1017100080E08093EA0181E001C080E0DF91CF9119
:101720000895CF93DF93D82FC92F0E945C0BED2F24
:10173000FC2F80E090E02191DC01A551BE4F2C935D
:10174000019685309105B9F78091EA01DF91CF913B
:101750000C943F17EF92FF920F931F93CF93DF9359
:101760008B01682F11110AC0442329F0E82FF0E003
:10177000E15EF74F6491762F862F75C0212F30E000
:10178000E82FF0E0442321F0E15EF74FE491F0E030
:1017900046E0049FC0011124CFEFD0E0BE010E94BB
:1017A0000E314BEA4603C001479F900D1124800F74
:1017B000911D800F911D982F990F890FAE01421B2B
:1017C000530B4E9FD0014F9FB00D5E9FB00D112463
:1017D0009B2F189FA0011124452F55278E01041B14
:1017E000150B0E9FA0010F9F500D1E9F500D112431
:1017F0007E01E81AF108E29E8001E39E100DF29E40
:10180000100D1124212F3327C21BD30BCE9F900123
:10181000CF9F300DDE9F300D112462307105A9F08D
:1018200048F46115710569F061307105C9F48B2FB9
:10183000752F0DC06430710581F058F06630710568
:1018400079F47E2F8B2F932F0DC0832F7B2F9E2F0C
:1018500009C08E2F7B2F952F05C08E2F732F02C0AE
:101860007E2F852F692FDF91CF911F910F91FF90D0
:10187000EF90089541E00E94AA0B08950895E8E1D1
:10188000F1E08083618308950E943A0C0895CF931C
:10189000DF93762FE901682F842F0E94440C79830F
:1018A00068838A83DF91CF9108958091F802282F71
:1018B000269530E02115310519F48170826005C04C
:1018C0002B32310524F0817084658093F8020895ED
:1018D00088E090E00C940032CF92DF92EF92FF927A
:1018E0006B017C010E94550CB701A60188E090E0D5
:1018F000FF90EF90DF90CF900C941E32E8EFF2E073
:1019000083E0808311828FEF828383831482A2E439
:10191000B2E012968C911297836012968C9360813C
:101920007181828193810C946C0C8091D30280FF31
:1019300008C08DE696E09F938F930E944B060F9010
:101940000F908091D30280FF0FC08091F8028170C8
:101950001F928F9380E596E09F938F930E944B0692
:101960000F900F900F900F908091D30280FF0FC0C7
:101970008091F80286951F928F9385E396E09F935E
:101980008F930E944B060F900F900F900F908091B5
:10199000D30280FF0EC08091F9021F928F938BE1DA
:1019A00096E09F938F930E944B060F900F900F909D
:1019B0000F908091D30280FF0EC08091FA021F9297
:1019C0008F9381E096E09F938F930E944B060F9038
:1019D0000F900F900F908091D30280FF0EC08091E6
:1019E000FB021F928F9387EE95E09F938F930E9447
:1019F0004B060F900F900F900F908091D30280FFB5
:101A00000EC08091FC021F928F938BEC95E09F9308
:101A10008F930E944B060F900F900F900F90089598
:101A20008091F80280FF02C08695089580E00895B5
:101A30009091FC02933018F49F5F9093FC028823EE
:101A400051F06091F8027091F9028091FA02909140
:101A5000FB020C946C0C089581E00C94180D90918D
:101A6000FC02992319F091509093FC02882351F0C5
:101A70006091F8027091F9028091FA029091FB0254
:101A80000C946C0C089581E00C942F0D70E00C9474
:101A9000B917609119018091F80280FF0AC0809106
:101AA000180123E0829FC001112483509D4F0C94A4
:101AB000460D80911A0190911B01891780F7E82F3C
:101AC000F0E09F01220F331FE20FF31FE350FD4FA1
:101AD0001182108212828F5FF0CF9091F80290FFF6
:101AE00016C090911A0120911B01921770F4E92FF2
:101AF000F0E0DF01AA0FBB1FEA0FFB1FE350FD4F11
:101B00008183608342839F5FF0CF0C94490D0895D9
:101B1000CF93DF9300D01F92CDB7DEB79091F8023C
:101B200090FF0AC09E012F5F3F4F0E94470C4B81E0
:101B300069818A810E946D0D0F900F900F90DF9147
:101B4000CF910895CF93DF93EC01EC81F0E0E5565F
:101B5000F94F4491E8EFF2E0628181810E94880DA3
:101B60008C818F5F8C83DF91CF910895CF93DF932A
:101B7000EC01E8EFF2E0438162818C810E94880DE4
:101B80008C818F5F8C83DF91CF9108950F931F938A
:101B9000CF93DF9300D01F92CDB7DEB78C01809139
:101BA000F90181110AC09E012F5F3F4F4FEF6FEF88
:101BB0000E94470C8A818093F901F8018481813069
:101BC00051F028F0823061F44091F9010AC080910F
:101BD000F90140E007C06091F90140E080E003C0F6
:101BE00040E080E060E00E946D0DF801848190E0AB
:101BF000019663E070E00E94223184830F900F9081
:101C00000F90DF91CF911F910F9108954F925F92A6
:101C10006F927F928F929F92AF92BF92CF92DF92FC
:101C2000EF92FF920F931F93CF93DF9300D01F92F9
:101C3000CDB7DEB7F82ED62EE42E622E9091F802A4
:101C400090FFC5C0E92FE695AE2FB0E0AA58BE4F71
:101C50008C91809342029E7F923061F49E012F5FAF
:101C60003F4F8F2D0E94470C4B8169818A810E94D2
:101C70006D0D62C0823019F4E090FB025DC08630C9
:101C800019F4F090F90258C08930D9F3893109F07C
:101C900053C0E9518E2F8170782E81E0C72CC82661
:101CA000E695F0E0E556F84FA590B490412CBB24A2
:101CB0009CEE892E93E0992E60911C014616D0F57A
:101CC000042D10E00A9DC0010B9D900D1A9D900DF2
:101CD000112470E00E940E315F2C711002C0560E6C
:101CE00001C0561A8091D30280FF11C0BF92AF92FB
:101CF0001F92CF921F925F921F924F929F928F924C
:101D00000E944B060FB6F894DEBF0FBECDBF809188
:101D10001A01080F111D9801220F331F020F131F04
:101D2000980123503D4F4E2D6D2D852D0E94470C5F
:101D30004394C2CF0E94490D8091F902F81208C065
:101D40008091FA02D81204C08091FB02E81629F0B3
:101D500080914402826080934402F092F902D09212
:101D6000FA02E092FB026620E9F06091F8027091BD
:101D7000F9028091FA029091FB020E946C0C809112
:101D8000D30280FF24C08091FB021F928F93809129
:101D9000FA021F928F938091F9021F928F9387EC22
:101DA00093E00CC08091D30280FF11C01F92EF928C
:101DB0001F92DF921F92FF9280EA93E09F938F938E
:101DC0000E944B060FB6F894DEBF0FBECDBF0F903A
:101DD0000F900F90DF91CF911F910F91FF90EF9097
:101DE000DF90CF90BF90AF909F908F907F906F903B
:101DF0005F904F900895E8EFF2E09181282F4381A2
:101E0000628188E0890F0C94060E81E00C94FB0E31
:101E1000E8EFF2E09181282F4381628188EF890FFA
:101E20000C94060E81E00C94080FE8EFF2E062815A
:101E300021E1620F08F46FEF282F438181810C9418
:101E4000060E81E00C94150FE8EFF2E0628121E1CB
:101E5000621B08F460E0282F438181810C94060EF8
:101E600081E00C94240FE8EFF2E0438121E1420F7E
:101E700008F44FEF282F628181810C94060E81E0D7
:101E80000C94330FE8EFF2E0438121E1421B08F4A8
:101E900040E0282F628181810C94060E81E00C9431
:101EA000420F21E00C94060E20E00C94060EFF92E7
:101EB0000F931F93CF93DF93EC01F12C0FEF10E002
:101EC00060911C01F616F0F480911A012F2D30E07C
:101ED000280F311DC901880F991F280F391F235062
:101EE0003D4F70E0C8010E942231962F8C814091B5
:101EF000FB026091FA02F99E800D11240E94470CAA
:101F0000F394DECF0E94490D9A818C8190FF02C02C
:101F10008F5F01C081508C83DF91CF911F910F9112
:101F2000FF9008958F929F92AF92BF92CF92DF92CF
:101F3000EF92FF920F931F93CF93DF93EC018A816F
:101F400080FF03C0BB24BA9402C0BB24B3948C812D
:101F500081110DC081E0B81206C080911C01815032
:101F60008093FB0102C01092FB0181E08C83A12CC5
:101F70004CE0942E80911C01A81608F044C080917A
:101F80001A01CA2CD12C8601080F111DC801880F17
:101F9000991F080F191F03501D4FF801118210825D
:101FA000128234E0E32EF12C812C8091FB01880D0C
:101FB0008D302CF0692D0E940031892F05C087FFDC
:101FC00003C090911C01890F082E000C990BC816B4
:101FD000D90691F48091FB028E9DA0018F9D500D3A
:101FE0001124559547955595479598016091FA02AA
:101FF0008091F9020E94470C8B0CF1E0EF1AF10876
:10200000A1F6A394B7CF0E94490D8091FB0191E006
:10201000B9120EC0811107C080911C0181508093BC
:10202000FB011C820FC081508093FB01BC820AC05F
:1020300090E0019660911C0170E00E942231809333
:10204000FB018C83DF91CF911F910F91FF90EF9057
:10205000DF90CF90BF90AF909F908F9008951F9387
:10206000CF93DF93EC018C81811109C081E08C83D7
:102070001092FA0192E090931701809316018091DB
:102080001A0190911B01891770F4E82FF0E09F016D
:10209000220F331FE20FF31FE350FD4F1182108216
:1020A00012828F5FF0CF10E060911C011617C0F50F
:1020B000E12FF0E070E0CF010E94223120911A015F
:1020C000820F2091FA01022E000C330B90E0E217F0
:1020D000F307CCF020911701022E000C330B2E17C2
:1020E0003F078CF09C01220F331F820F931F9C012E
:1020F00023503D4F4091FB026091FA028091F9021A
:102100000E94470C0BC0FC01EE0FFF1F8E0F9F1F9C
:10211000FC01E350FD4F1182108212821F5FC4CF79
:102120000E94490D809116012091FA01280F2093F9
:10213000FA0190911701980F9093170119165CF40A
:10214000022E000C330B40911C0150E0415051090C
:102150002417350734F0819580931601813009F4F6
:102160001C82DF91CF911F9108958F929F92AF9221
:10217000BF92CF92DF92EF92FF920F931F93CF9374
:10218000DF938C01FC014481C42FD0E09E01DE016D
:102190000E9466319B01AC010E947C316B017C0185
:1021A000E0E2F0E0EC1BFD0BA5E5B0E09B01AC012B
:1021B0000E947C314B015C019F01DF010E945E3176
:1021C0009B01AC010E9487319B01AC012C0D3D1D90
:1021D0004E1D5F1DC501B4010E943631C22FD22FA2
:1021E0002A3228F4F3E02F9F900111240DC025E539
:1021F00030E02C1B3109C901880F991F280F391FA6
:1022000037FF02C02F5F3F4F35952795C22FC095EE
:10221000F12C85E5E82EED1A80911C01F816C8F422
:10222000F1FC02C08E2D01C08D2F90911A012F2D2F
:1022300030E0290F311DA901440F551F240F351F10
:1022400023503D4F4C2F6091FA020E94470CF394AB
:10225000E3CF0E94490DF8018481811102C091E011
:1022600003C0803219F49FEF9093150190911501EE
:10227000890FF8018483DF91CF911F910F91FF9017
:10228000EF90DF90CF90BF90AF909F908F90089588
:102290000F931F93CF93DF93EC0100E010E0809148
:1022A0001C01282F30E00217130724F590911A0122
:1022B0009801290F311DA901440F551F240F351F07
:1022C00023503D4F869590E04C81081719071CF468
:1022D000442331F002C0411103C04091FB0201C010
:1022E00040E06091FA028091F9020E94470C0F5F72
:1022F0001F4FD5CF0E94490D8C8190E001968170CF
:1023000099278C83DF91CF911F910F9108958F9220
:102310009F92AF92BF92CF92DF92EF92FF920F9374
:102320001F93CF93DF93FC01B280948081E084837C
:1023300000E015E05BE4A52E88248394EE24EA9463
:10234000F12C7BE4C72ED12C80911C01081708F0DA
:102350008FC0C02FD0E01C9FF0011D9FF00D1124F5
:10236000E150FE4F911003C01382128267C0238197
:10237000222389F1215023833481332319F09A2DAC
:10238000921B01C0922F8091FB021C9FF0011D9FA8
:10239000F00D1124E150FE4F899FC0011124B601B8
:1023A0000E940E316283211104C0332311F0148284
:1023B000A38222E02B1508F441C01C9FF0011D9F51
:1023C000F00D1124E150FE4F8091F902808380913D
:1023D000FA02818333C00E94DB318230914074F570
:1023E00082E08B1530F40E94DB31B7010E9422316C
:1023F00002C08091F9021C9FF0011D9FF00D112475
:10240000E150FE4F808322E02B1558F40E94DB310F
:102410002091FA022695622F70E00E942231820FED
:1024200002C08091FA021C9FF0011D9FF00D112443
:10243000E150FE4F81831282A382848280911A012F
:102440009E01280F311DC901880F991F280F391FC0
:1024500023503D4F1C9FF0011D9FF00D1124E150B2
:10246000FE4F4281618180810E94470C0F5F6CCFDB
:10247000DF91CF911F910F91FF90EF90DF90CF9060
:10248000BF90AF909F908F900C94490D8091440223
:10249000089510924402089525E0E8EFF2E0DC018F
:1024A00001900D922A95E1F720914202309143026A
:1024B00040914402FC012583368347830895E2E47A
:1024C000F2E0118282818460828308956091F80233
:1024D000669570E04BE050E08DE191E00E94EB31B9
:1024E000892B19F481E0809343020E941429909370
:1024F0003C0280933B0280914402846080934402BA
:102500008091D30280FF08C087E893E09F938F9368
:102510000E944B060F900F900895109243028091F5
:1025200044028460809344028091D30280FF08C0FB
:102530008EE693E09F938F930E944B060F900F902F
:1025400008959091F80290FF59C09170811102C0D6
:10255000926006C08B3210F0946502C0880F982BF1
:102560009093F80280914402816080934402662334
:10257000B1F06091F8027091F9028091FA029091A5
:10258000FB020E946C0C8091D30280FF1BC08091E3
:10259000F80286951F928F9381E195E00BC08091A0
:1025A000D30280FF0FC08091F80286951F928F930F
:1025B00083EF94E09F938F930E944B060F900F90B0
:1025C0000F900F906091F802669570E04BE050E03C
:1025D0008DE191E00E94EB31892B19F00E948D1260
:1025E00002C00E94661281E080933E024091FB028D
:1025F0006091FA028091F9020C94540F0895682FAB
:102600009091F802969581E0890F8B3208F081E075
:102610000C94A11281E00C94FF12682F9091F802A3
:1026200096958FEF890F09F48AE20C94A11281E04C
:102630000C940D1361E00C94A1128091F80281605A
:102640008093F8028091D30280FF0DC01F9281E039
:102650008F9385E894E09F938F930E944B060F9091
:102660000F900F900F908091F80286950C941A139A
:1026700060E00C94A11280914102811165C08091AB
:10268000D30280FF08C084EB95E09F938F930E9454
:102690004B060F900F908091D30280FF08C08EE907
:1026A00095E09F938F930E944B060F900F900E948E
:1026B0008927811110C08091D30280FF08C086E76E
:1026C00095E09F938F930E944B060F900F900E946E
:1026D00032280E947E0C0E94680C6093F80270936E
:1026E000F9028093FA029093FB0280914402836086
:1026F000809344026E7FC1F48091D30280FF08C0B2
:102700008DE295E09F938F930E944B060F900F9060
:102710000E947E0C0E94680C6093F8027093F9028C
:102720008093FA029093FB020E94550C0E94950C34
:102730000E945F128091F80280FF03C086950E947C
:10274000381381E08093410208958091F8028E7FD2
:102750008093F8026091F8027091F9028091FA0278
:102760009091FB020E946C0C8091D30280FF0FC0FD
:102770008091F80281701F928F938DE494E09F9373
:102780008F930E944B060F900F900F900F900E9416
:102790008D12809144028160809344022FEF80E784
:1027A00092E0215080409040E1F700C000000C947E
:1027B000490D8091D30280FF10C08091F80280956E
:1027C00081701F928F938CEB94E09F938F930E9464
:1027D0004B060F900F900F900F908091F80280FDA4
:1027E0000C94A5130C941D138091F8028E7F809396
:1027F000F8028091D30280FF0CC01F921F9283E1E8
:1028000094E09F938F930E944B060F900F900F9030
:102810000F900E948D128091440281608093440247
:102820002FEF80E792E0215080409040E1F700C018
:1028300000000C94490D1F93CF93DF93EC01162FEA
:102840008F8180FF0FC0888180FF0AC08091F802CD
:1028500081608093F802888186950E94A11202C04F
:102860000E94F4138F8181FF06C0212F4B816A8162
:1028700089810E94060E8F8182FF08C08E81882385
:1028800019F00E94661202C00E948D128F8183FF90
:1028900003C081E080933E02DF91CF911F910895A4
:1028A000EF92FF920F931F93CF93DF938091430298
:1028B000882309F4CEC080914202E091F802E695A7
:1028C000E81BE0933D02823049F4F0E0E956F94F0D
:1028D000E491CE2FD0E002EA1DE059C0863049F4E1
:1028E000F0E0EC56F94FE491CE2FD0E006EB1DE07E
:1028F0004EC0893051F4E695F0E0EF56F94FE4917F
:10290000CE2FD0E007E51FE042C08F3051F4E695AE
:10291000F0E0E257F94FE491CE2FD0E002E91FE05A
:1029200036C0853149F4F0E0E557F94FE491CE2FF8
:10293000D0E00FE210E12BC08831D9F0833239F4B6
:10294000E9E8F6E0C591D49106EC1DE020C08432A0
:10295000A9F08532C1F48E2F63E00E94F430E92F94
:10296000F0E0EA57F94FE491CE2FD0E007E811E10B
:102970000EC0C8E2D0E005EB10E109C0C4EFD1E021
:1029800008E411E104C0C0EDD7E00EE31CE0809143
:102990003E02882389F010923E020E9414299E0173
:1029A00020953095820F931F90933C0280933B02B9
:1029B0001092400210923F0280913B0290913C02A3
:1029C0000E9420298C179D0708F443C08091FE01C6
:1029D000882311F11092FE018091FC019091FD017C
:1029E0000E94202980339547B8F00E9414299093C3
:1029F000FD018093FC018091D30280FF08C085E433
:102A000093E09F938F930E944B060F900F908091BD
:102A10004402886080934402E0903F02F0904002BC
:102A2000E0913B02F0913C02CE0FDF1FD0933C02BD
:102A3000C0933B028BE392E0F801099580913F023D
:102A400090914002892B29F4EF2819F081E08093BE
:102A5000FE01DF91CF911F910F91FF90EF900895AC
:102A6000882311F0FA0101C0FB010994CF93DF9391
:102A7000C82FD62F0E94100D8C1740F00E94100D09
:102A80008D1720F4DF91CF910C940A138C2FDF91D6
:102A9000CF910C941A131F93CF93DF93FB011281F4
:102AA000111163C0EC010E94D3268272FE01E35C27
:102AB000FC45E431F10508F057C0EA5AFF4F0C9489
:102AC00058310E94D91351C047E153E16AE073E1E4
:102AD00004C04AE053E167E173E10E94301545C04C
:102AE00042E15FE065E07FE0F8CF45E05FE062E172
:102AF0007FE0F3CF40E35FE061E27FE0EECF41E2D1
:102B00005FE060E37FE0E9CF4EE45FE06FE37FE00A
:102B1000E4CF4FE35FE06EE47FE0DFCF43E45DE0CE
:102B20006CE27DE0DACF4CE25DE063E47DE0D5CF9E
:102B300081E017C065E082E010C068E086E00DC06B
:102B40006EE089E00AC064E18FE007C067E185E1DB
:102B500004C088E106C062E289E10E94361505C022
:102B600083E20E941A1301C011E0812FDF91CF91FF
:102B70001F91089580912103817008958091210310
:102B800086958695869508950E948927811102C0B1
:102B90000E9432280E94BA2780932103282F26956D
:102BA0002695269530E02630310524F0877088621E
:102BB000809321038091210380FF04C08695869530
:102BC000869501C080E00C943F1720912103822F4D
:102BD000869586958695482F50E04530510554F4EA
:102BE0008F5F982F990F990F990F822F8770892BDC
:102BF00080932103809121038160809321030E94AF
:102C0000BE278091D30280FF11C080912103869559
:102C1000869586951F928F9387E098E09F938F9378
:102C20000E944B060F900F900F900F908091210300
:102C30008695869586950C943F1780912103982F51
:102C4000969596959695A1F0915E990F990F990F8B
:102C50008770892B80932103887F91E009F490E0AD
:102C60008091210390FB80F9809321030E94BE276D
:102C70008091D30280FF11C08091210386958695B3
:102C800086951F928F938FEE97E09F938F930E946C
:102C90004B060F900F900F900F9080912103869517
:102CA000869586950C943F178091210380FD1FC067
:102CB000816080932103813019F489E0809321039E
:102CC000809121030E94BE278091D30280FF08C01B
:102CD00087EC97E09F938F930E944B060F900F9085
:102CE000809121038695869586950C943F170895CB
:102CF0008091210380FF14C08E7F809321030E9466
:102D0000BE278091D30280FF08C084EB97E09F9399
:102D10008F930E944B060F900F9080E00C943F170A
:102D20000895CF93C0912103C1708091D30280FF99
:102D30000CC01F92CF9389ED97E09F938F930E94D1
:102D40004B060F900F900F900F90CC2319F0CF915E
:102D50000C947816CF910C94541690912103892FDE
:102D60008695869586958F5F8F719770863038F43B
:102D7000880F880F880F892B8093210302C09093BE
:102D8000210380912103887F91E009F490E08091F4
:102D9000210390FB80F9809321030E94BE2780913C
:102DA000D30280FF11C08091210386958695869578
:102DB0001F928F9380EA97E09F938F930E944B0618
:102DC0000F900F900F900F9080912103869586951C
:102DD00086950C943F17863008F085E0909121038A
:102DE0009770282F220F220F220F922B90932103EE
:102DF000987F21E009F420E09091210320FB90F9D5
:102E0000909321030C943F170E94EB1680912103AD
:102E10000C94BE279C01FB018281882349F12E3B43
:102E2000FCE53F07C9F040F42C3BECE53E0769F0B8
:102E30002D3B3C4561F00895203C9CE5390791F01D
:102E400070F0213C3C4589F0089585E001C080E0A8
:102E50000E94041780E008950E941D16FBCF0E9477
:102E6000E515F8CF0E949116F5CF0E94AD16F2CF6E
:102E700081E00895259A2D9808952D980895CF9270
:102E8000DF92EF92FF92CF93C82F863050F48111DA
:102E900009C0809180008F77809380000E943D1749
:102EA00006C0C5E0809180008068809380002C2F50
:102EB00030E0AFEFBFEF0E94663125E030E040E048
:102EC00050E00E943631B42FA32F922F8827492F2C
:102ED0005A2F6B2F7727CA014C3724E1520728F469
:102EE00069E070E00E940E3129C0DB01CA018A50FE
:102EF000974DAF4FBF4F6627782F892F9A2F25EF19
:102F000038E241E050E00E94363169017A01CA019D
:102F1000B9010E94E4309B01AC01C701B6010E94D7
:102F2000E430BB27A92F982F872F009721E0A20715
:102F3000B10511F0BC0102C06FEF7FEF7093890003
:102F400060938800CF91FF90EF90DF90CF9008952D
:102F500008950E943A1782E88093800089E1809367
:102F600081008FEF9FEF90938700809386000C94F1
:102F7000C415539A2BB1277F3BB138604FB7F894F3
:102F8000FC01CB01880F991F680F791F6E0F7F1FFF
:102F9000E617F70789F0819198E03BB9000000C07F
:102FA00087FF2BB9880F000000C000C000C02BB9FC
:102FB00000C09A9591F7ECCF4FBF8FE594E0019751
:102FC000F1F700C0000008950F931F93CF93DF9394
:102FD000C42FD22FFC0182818823C9F0409347027D
:102FE0000E941429909346028093450280E28C0F40
:102FF000883008F057C0C77081E001C0880FCA95BB
:10300000EAF7DF91CF911F910F910C94841E80916C
:103010004702481330C080914502909146020E94B9
:103020002029883C910538F510E21D0FCD17B9F025
:1030300080E28C0F883040F4C77081E001C0880FB7
:10304000CA95EAF70E948B1E183028F581E09D2F63
:10305000977001C0880F9A95EAF70E94841E802F0E
:103060000E94711E1830F0F4D77081E001C0880F03
:10307000DA95EAF70AC080E28C0F883098F4C770BE
:1030800081E001C0880FCA95EAF7DF91CF911F91C7
:103090000F910C948B1E802FDF91CF911F910F9178
:1030A0000C94711EDF91CF911F910F9108950F9392
:1030B0009C01CB01243F4CE5340731F188F4293DD4
:1030C000FCE53F07D9F02A3D4CE5340779F1283D6E
:1030D0003C45A9F506E221EE41EE68ED7CE52BC00A
:1030E000263FFCE53F07E1F0A8F0273F3C4539F5D6
:1030F00007E225EE46EE67EF7CE51DC007E225EE10
:1031000045EE69ED7CE517C006E221EE40EE64EF86
:103110007CE511C007E225EE44EE65EF7CE50BC0CF
:1031200006E221EE42EE66EF7CE505C008E221E012
:1031300045EE6AED7CE50E94E41780E008C0FC01E2
:103140008281882319F01092470201C081E00F911B
:103150000895CF93DF93EC01FB018281882309F46A
:103160001FC1C230FCE5DF0708F41BC1C6319CE576
:10317000D90738F09E012B5F3C452930310508F016
:1031800010C10E949C279093270380932603C0318F
:10319000ECE5DE0709F4C3C008F041C0C8308CE597
:1031A000D80709F49AC0F0F4C430ECE5DE0709F45E
:1031B00087C068F4C2308CE5D80709F477C0C33003
:1031C000DC4509F0E3C080912603826076C0C630FA
:1031D000ECE5DE0709F46EC008F07BC080912603A1
:1031E00088606BC0CC308CE5D80709F485C068F4E2
:1031F000CA30ECE5DE0709F474C008F079C00E941B
:10320000052180912603806858C0CE308CE5D80710
:1032100009F476C008F07FC0809126038BC0CC3FB4
:10322000ECE5DE0709F44FC018F5C3318CE5D8078B
:1032300009F47DC078F4C131ECE5DE0709F473C010
:10324000C231DC4509F0A2C00E940521809126030D
:103250008F7733C0C5318CE5D80709F472C008F404
:1032600086C0CB3FDC4509F091C0809127033EC06A
:10327000C115FDE5DF0709F45FC058F4CE3F9CE5BA
:10328000D90709F444C008F43FC080912703826045
:103290002DC0C230FDE5DF0709F475C008F45DC03C
:1032A000C330DD4509F072C080E06EC08091260316
:1032B000816003C08091260380618093260366C0ED
:1032C0008091260311C08091270382608093270399
:1032D0005DC0809126038062F0CF809126038064D8
:1032E000ECCF8091260388608460E7CF8160EECFC9
:1032F000809126038E7FE1CF809126038D7FDDCFE5
:1033000080912603877FD9CF8091270318C08091B1
:1033100027038D7FDBCF809126038F7ECECF8091D8
:1033200026038F7DCACF809126038F7BC6CF8091E5
:103330002603877F8B7FC1CF809127038D7F8E7F70
:10334000C5CF8091260382FB222720F991E09227A6
:1033500090FB82F990FB83F9B0CF80912703982FDF
:10336000909591708E7F892B90FB81F9AFCF0E9451
:1033700005218091260387FB222720F991E09227DF
:1033800090FB87F99ACF81E00E9434288091260330
:10339000909127030E94AD270E94052180E001C083
:1033A00081E0DF91CF910895CF93DF9386319C45E3
:1033B00041F5EB010E94D326982F8A8120912801A4
:1033C00030912901882379F09A7A81E009F480E02C
:1033D00080934802911102C069E201C065E3C9010E
:1033E0000E947B280AC080914802811102C069E2D4
:1033F00001C065E3C9010E947D280E94212780E069
:1034000001C081E0DF91CF9108958EE1489B02C019
:103410008150E1F7489BFECF0895589880E28A9545
:10342000F1F7589A0895FC012AE02A95F1F790E007
:1034300020E080E031E0261779F040E14A95F1F78D
:10344000880F489B02C08160932700C0000040E1C4
:103450004A95F1F72F5FEFCF20E12A95F1F729B1D7
:1034600000C0000030E13A95F1F7217092272081E9
:10347000920F90830895EF92FF920F931F93CF9333
:10348000DF931F92CDB7DEB719828C017C01E60E67
:10349000F11C0E151F0559F00E94051A68E0CE01B7
:1034A00001960E94131AF80181938F01F2CF81E0F7
:1034B0009981911180E00F90DF91CF911F910F9131
:1034C000FF90EF90089590934B0280934A0260938F
:1034D0004902509A589A089590934B0280934A0259
:1034E000609349025098589AE89AE9E6F0E08081A2
:1034F0008C7F80830895615091E001C0990F6A9597
:10350000EAF720E031E0992361F0492F482319F0D0
:10351000589A232701C0589840E24A95F1F79695AA
:10352000F2CF222311F0589A01C0589880E28A9570
:10353000F1F758980895FF920F931F93CF93DF935D
:10354000EC018C01060F111DC017D10741F0F99055
:103550000E940D1A68E08F2D0E947B1AF5CFDF9133
:10356000CF911F910F91FF9008951F920F920FB668
:103570000F9211240F931F932F933F934F935F93B9
:103580006F937F938F939F93AF93BF93EF93FF932B
:10359000CF93DF931F92CDB7DEB719820E94051A31
:1035A00067E0CE0101960E94131A382F36953695A2
:1035B0003695932F96959570232F2570920F292F6E
:1035C0002370969596958770920F891348C08981CC
:1035D000811145C080914902831708F440C080E101
:1035E0008A95F1F7589A509AA2E0AA95F1F700C08F
:1035F00000914A0210914B02B8E03B9F000D111D53
:1036000011245898F8016581662321F086819781FD
:103610000E949B1A0E940D1AF0E1FA95F1F7589852
:103620005098589A80E18A95F1F7D80112966C91DA
:103630001297662369F013968D919C9114970E94BE
:103640003B1AD801ED91FC91811105C082E004C0C4
:10365000D801ED91FC9188E080830E94051A0F90BB
:10366000DF91CF91FF91EF91BF91AF919F918F919A
:103670007F916F915F914F913F912F911F910F918A
:103680000F900FBE0F901F9018950F931F93CF931D
:10369000DF932091490230E0281739070CF471C0FC
:1036A0009C0193E0220F331F9A95E1F7C0914A02E3
:1036B000D0914B02C20FD31FF894509A589845E00E
:1036C0004A95F1F70000982F969595708570890FAF
:1036D000982F937086958695890F8901082B0E94F3
:1036E0000D1A84E08A95F1F700C067E0802F0E94F0
:1036F0007B1A40E14A95F1F75098589A489902C0D0
:1037000000C0FCCF87E090E0489B0EC0019751F4C9
:10371000509A589AE881F98181E08083789481E019
:1037200090E031C000C0F0CF6D81662381F08E81C2
:103730009F810E943B1A81110AC0509A589AE881D1
:10374000F98182E08083789482E090E01CC00E943E
:10375000051A80E28A95F1F75898509A40E14A9507
:10376000F1F76A81662321F08B819C810E949B1A6C
:103770000E940D1AE881F9811082789480E090E02F
:1037800002C084E090E0DF91CF911F910F910895E6
:1037900090935102809350020895E0915002F0916D
:1037A0005102309721F00190F081E02D099480E0E2
:1037B0000895EF92FF920F931F93CF93DF93E091C1
:1037C0005002F09151023097B1F18C010280F381E7
:1037D000E02D09958091D30282FF2DC080FF04C0A7
:1037E00087E299E00E94B205E80118E081E2E82E44
:1037F00089E0F82E8091D30280FF0BC088811F9250
:103800008F93FF92EF920E944B060F900F900F90B4
:103810000F90115021961111EDCF8091D30280FFAE
:103820000AC08FE199E0DF91CF911F910F91FF9036
:10383000EF900C94B205DF91CF911F910F91FF9003
:10384000EF90089520914E0230914F0228173907CA
:1038500071F090934F0280934E02E0915002F091EC
:103860005102309721F00680F781E02D09940895E8
:1038700020914C0230914D022817390771F0909336
:103880004D0280934C02E0915002F091510230972A
:1038900021F00084F185E02D0994089585B78068B2
:1038A00085BF85B7806885BF08950C94050B089582
:1038B0000C94571C0C94571C0C945A1C0C94571CB9
:1038C0000C945E1C0C94571C0E944E1C0E94621C9F
:1038D0000C94601C0E940B290E94D7090E94662943
:1038E0000E94C4150E943B130C945C1CCF93C82FFC
:1038F0008091D30282FF1EC080FF04C080E499E063
:103900000E94B2058091D30280FF0CC01F92CF931A
:103910008BE399E09F938F930E944B060F900F903B
:103920000F900F908091D30280FF04C089E399E04B
:103930000E94B2058C2FCF910C945507AF92BF9285
:10394000CF92DF92EF92FF920F931F93CF93DF936B
:10395000CDB7DEB72A970FB6F894DEBF0FBECDBF46
:103960000E94581C0E94571C0E94480A0E94551C25
:10397000811111C08FEF89838A831B820E941429D1
:103980008160782F9D838C8349815A816B818D81E1
:103990000E943C1D40C083E5A82E82E0B82E00E0C6
:1039A00010E0C02E802F0E946609E82EF501D1900C
:1039B0005F01D82631F40F5F1F4F0A30110589F7D8
:1039C000D9CF8091D30281FD0E946C0980E0FF2451
:1039D000F3949D2D9F21D1F08E83CF82EF2081E043
:1039E00009F480E088870E9414298160782F9A87E3
:1039F00089874E815F8168858A850E943C1DF80118
:103A0000ED5AFD4F8081F826F08205C08F5FFF0CD4
:103A10008630F9F6D0CF0E9450140E94A8170E9459
:103A2000CD1B909152028917B1F00E94CD1B80935B
:103A300052022A960FB6F894DEBF0FBECDBFDF91BB
:103A4000CF911F910F91FF90EF90DF90CF90BF909B
:103A5000AF900C94761C2A960FB6F894DEBF0FBE7A
:103A6000CDBFDF91CF911F910F91FF90EF90DF902D
:103A7000CF90BF90AF900895CF93DF93CDB7DEB7CF
:103A80002B970FB6F894DEBF0FBECDBF4F8358877C
:103A900069877A878B87DE01119686E0FD01119296
:103AA0008A95E9F785E0FE01379601900D928A9597
:103AB000E1F749815A816B817C818D819E810E94D1
:103AC000BE232B960FB6F894DEBF0FBECDBFDF919D
:103AD000CF910895FC01808191810E9494260895E0
:103AE000CF93882309F49CC0C82F8238C1F40E9468
:103AF000CD1B81FD95C069E380912801909129013A
:103B00000E947B280E9421272FEF81EE94E0215014
:103B100080409040E1F700C0000069E319C083389D
:103B200001F50E94CD1B80FD7BC063E580912801DB
:103B3000909129010E947B280E9421272FEF81EE7E
:103B400094E0215080409040E1F700C0000063E520
:103B500080912801909129010E947D28CF910C9499
:103B600021278438C1F40E94CD1B82FD59C067E42F
:103B700080912801909129010E947B280E94212791
:103B80002FEF81EE94E0215080409040E1F700C09B
:103B9000000067E4DDCF8CEF8C0F813AD0F46C2FFE
:103BA00080912801909129010E944528882349F09D
:103BB0006C2F80912801909129010E947D280E94FC
:103BC00021276C2F80912801909129010E947B2848
:103BD000C5CF80E28C0F883048F4C77081E001C007
:103BE000880FCA95EAF70E94D626B8CFEBE5EC0F0E
:103BF000E33040F4F0E0E153FE4F808190E0CF915C
:103C00000C94221CC85AC73158F4EC2FF0E0EE0F88
:103C1000FF1FEF55FE4F80819181CF910C94381C8E
:103C2000CF910895882309F45BC0682F823879F416
:103C30000E94CD1B81FF54C069E3809128019091BF
:103C400029010E947B280E94212769E310C0833844
:103C5000B1F40E94CD1B80FF43C063E58091280131
:103C6000909129010E947B280E94212763E5809181
:103C70002801909129010E947D280C9421278438E5
:103C800079F40E94CD1B82FF2BC067E4809128014C
:103C9000909129010E947B280E94212767E4E7CFA9
:103CA0008CEF860F813A18F380E2860F883048F453
:103CB000677081E001C0880F6A95EAF70E94DC26F0
:103CC000DCCF8BE5860F833020F480E090E00C940D
:103CD000221C685A673120F480E090E00C94381C74
:103CE0000895CF93C82F0E94701DC93349F42FEF58
:103CF00087EE93E0215080409040E1F700C0000043
:103D00008C2FCF910C94121E882321F00E94D6266E
:103D10000C9421270895882321F00E94DC260C941E
:103D200021270895CF92DF92EF92FF920F931F9376
:103D3000CF93DF937C01062FC72FFC0115811295CD
:103D40001F70D281D1110E94F3260E94CC268823B5
:103D500099F0DD2389F08C2F807F803421F080E280
:103D6000800F883048F082E00E946B270E94CC26AA
:103D700091E0D82ED92601C0D12CCC2EC2948FE050
:103D8000C8228C2D90E0FC01E659FF4F0C9458316D
:103D90008C2F807FCF70882311F0C295C07FDD23E8
:103DA00099F0CC2309F482C180E2800F883010F0B2
:103DB000011104C08C2F0E94D62603C08C2F0E94B4
:103DC000E6260E94212772C1802F0E94121ECC235A
:103DD00009F491C180E2800F883010F0011104C015
:103DE0008C2F0E94DC2603C08C2F0E94EC260E94A0
:103DF000212781C18C2F807FCF70803211F0C29536
:103E0000C07F002319F00130C9F022C0DD2371F01A
:103E1000112341F0113031F40E9406278C2B0E94AF
:103E20000E2769C10E9406278C2B1DC0112319F093
:103E3000113009F460C10E94172725C0DD2321F04D
:103E4000163008F058C10EC0153008F054C11BC020
:103E5000DD2361F0112331F0F701858180FF26C158
:103E60008F7085838C2F0E94841E45C1112359F0C9
:103E7000093309F02CC1FFEF27EE83E0F150204019
:103E80008040E1F722C18C2F0E948B1E34C18C2F01
:103E900086958695837019F0813061F02CC1DD2301
:103EA00021F0802F9C2F937002C080E090E00E9450
:103EB000221C29C1DD2321F0802F9C2F937002C08A
:103EC00080E090E00E94381C1EC18C2F837009F0A6
:103ED00045C0D11114C1402F429546954770440FFB
:103EE000440F602F6F70862F90E0A0E0B0E0042EAA
:103EF00004C0880F991FAA1FBB1F0A94D2F704FFA2
:103F000010C00FE010E020E030E004C0000F111FEF
:103F1000221F331F4A95D2F70095109520953095B2
:103F200003C000E010E09801C695C695C370BC01BF
:103F3000CD01602B712B822B932BC23049F058F4AA
:103F4000C13019F00E940F25DAC00E94FD24D7C0AD
:103F50000E942125D4C00E94FB24D1C0DD2319F08A
:103F60008C2F817001C08695882309F4C8C0402F2A
:103F7000429546954770440F440F602F6F70862F0F
:103F800090E0A0E0B0E0042E04C0880F991FAA1FA3
:103F9000BB1F0A94D2F704FF10C00FE010E020E02E
:103FA00030E004C0000F111F221F331F4A95D2F7C3
:103FB000009510952095309503C000E010E0980121
:103FC000C695C695C370BC01CD01602B712B822BA9
:103FD000932BC23049F058F4C13019F00E94D42517
:103FE0008EC00E94C2258BC00E94E62588C00E9418
:103FF000352585C0CF70DD2339F08C2F0E945B25DD
:10400000802F0E94841E7BC0802F0E948B1E8C2FCD
:104010000E947C2574C0023F01F128F4003F41F06A
:10402000013FA1F03FC0033FF9F0043F39F13AC02E
:10403000DD2341F0153008F05EC08C2F8F710E9497
:10404000A12559C0163008F056C0F7CFDD2339F04E
:104050008C2F8F710E945B254EC0DD23C9F38C2FFE
:104060008F710E947C2547C0DD2329F08C2F8F7132
:104070000E94462540C00E9441253DC0DD2349F0F5
:10408000CF718C2F0E945B2563E08C2F0E945627F6
:1040900032C081E00E946B27123068F182E00E94FA
:1040A0006B2729C0DD2331F0112391F2802F0E946C
:1040B000701D21C0112399F2093349F49FEFE7EEF7
:1040C000F3E09150E040F040E1F700C00000802FA5
:1040D0000E94121E10C04C2F4F70602FC7010E940B
:1040E0005E070E946C240FC04C2F4F70602FC701D9
:1040F0000E94610708C088EF8C0D843020F40E9474
:10410000CD1B0E945507DD20C9F00E94C82680FD06
:1041100015C0F70112820E94C2260E945B25C701CA
:104120000E94BF200E94C226DF91CF911F910F9164
:10413000FF90EF90DF90CF900C947C25DF91CF9192
:104140001F910F91FF90EF90DF90CF9008950F9304
:104150001F93CF93DF93EC01688179818A810E945C
:104160009F268C010E94F8250E94E924B801CE0107
:104170000E94921EDF91CF911F910F910895CF93CE
:10418000DF93EC01988189812B813C81232B31F0D5
:104190008F3F31F481E09F3F19F403C081E001C0FB
:1041A00080E080FD19C0CE010E94D60681110CC0AE
:1041B0000E94CC26882381F08A81882369F082E0DE
:1041C000DF91CF910C946B27CE010E94A720CE01E6
:1041D000DF91CF910C94AF06DF91CF9108950E94AB
:1041E000F3260E9403270E94212780E090E00E948E
:1041F000221C80E090E00C94381C80912801909162
:1042000029010E947F280C94EF200E94E3260C9441
:10421000FD20E92FE295EF704E2F50E0FA01329722
:10422000EE30F105B0F4E658FF4F0C945831803F62
:1042300091F018F4883E68F40EC0843F51F40BC02E
:10424000883E48F0813F29F406C093FB882780F917
:10425000089580E0089581E008950E9494260E94C8
:1042600009210895CF93DF9300D000D01F92CDB7DE
:10427000DEB70F900F900F900F900F90DF91CF91BE
:104280000895CF93DF9300D000D000D0CDB7DEB734
:1042900026960FB6F894DEBF0FBECDBFDF91CF914B
:1042A00008951F93CF93DF93C0915E0216E0809133
:1042B0005F02C81799F0D0E01C9FF0011D9FF00D20
:1042C0001124E05AFD4F40815181628173818481C4
:1042D00095810E9441212196C770E9CFDF91CF914E
:1042E0001F91089540919002509191026091920225
:1042F0007091930280919402909195020C944121C7
:104300000F931F93CF93DF938091950282958F70C7
:1043100009F05DC080919202882309F458C0809111
:104320005E0210915F026091900270919102C091C3
:104330009302D091940291E06F3F09F090E0292F11
:1043400006E0811709F443C0209721F07F3F21F058
:1043500030E003C031E001C0322F90E030FD34C0C6
:10436000089FF001099FF00D1124DF01A05ABD4FF5
:1043700011963C911197371327C03C91361324C0F6
:1043800012963C91129731111FC013964D915C917A
:1043900014974C1B5D0B483C5105B0F4809195027D
:1043A0008F70806180939502EB59FD4F80818F70F3
:1043B0008061808380E992E00E94BF20DF91CF91ED
:1043C0001F910F910C94512101968770BACFDF9104
:1043D000CF911F910F9108959F92AF92BF92CF926C
:1043E000DF92EF92FF920F931F93CF93DF93CDB79E
:1043F000DEB761970FB6F894DEBF0FBECDBF8C015C
:1044000085E0F801DE011D9601900D928A95E1F795
:10441000F80140815181E280909190026091910277
:1044200020919302309194022115310531F06F3FB4
:1044300031F481E09F3F19F403C081E001C080E0C6
:10444000F82FF1709F2E80FD46C1F801A380B48043
:1044500080E9C82E82E0D82EF0909202F501E21B8E
:10446000F30BFF2009F4DFC080919502E83CF105D1
:1044700008F09BC0282F207F09F052C0561313C0AC
:10448000491311C0FE2CE1100EC08F708061809323
:1044900095020E947221C6010E94BF208091950260
:1044A000F801858358C1AB2831F05F3F31F481E0DA
:1044B0004F3F19F403C081E001C080E080FD03C0DC
:1044C00081E08E2502C080E090E0F82FF170FF2E91
:1044D00080FF1CC080915E0220915F0236E082174F
:1044E00009F417C190E0389FF001399FF00D1124B5
:1044F000E05AFD4F6181561306C06081461303C028
:104500006281E61203C001968770E9CFFE2CEE208F
:1045100009F421C1809195028160809395025AC06F
:10452000561306C0491304C0E11002C0F8019FC031
:104530004D875E878D859E850E942D21882379F188
:10454000EE2069F120919502822F82958F7090E084
:10455000029774F0809190029091910298878F83D6
:104560001986BB86AA862C87CE0107960E94BF209B
:1045700086E0F801A0E9B2E001900D928A95E1F79A
:104580000E9480210E9472210DC0561729F14D878B
:104590005E878D859E850E942D2181112CC0C801CA
:1045A0000E94BF20FF24F394D6C0282F207F69F7F4
:1045B0007A2DB98AA88A6E2D89890E94322180E9D4
:1045C00092E00E94BF2086E0F60111928A95E9F7F9
:1045D0000E947221F12CBFC04913D9CFE110D7CF6F
:1045E000F8018583C8010E94BF2086E0F601119280
:1045F0008A95E9F7B0C0EE2091F220919502822FC2
:1046000082958F7090E002970CF4B2CF8091900267
:10461000909191029A8389831B82BD82AC822E8302
:10462000CE010196A3CFE83CF10508F047C0FE2C6F
:10463000EE2009F4B4CF561330C049132EC0209198
:10464000950220FD21C0822F82958F70482F50E067
:1046500041155105C9F0F80125834F30510541F04E
:104660008F5F982F9295907F822F8F70892B8583F3
:10467000C8010E94BF2086E0F801A0E9B2E00190E5
:104680000D928A95E1F742C086E0F801A0E9B2E018
:1046900001900D928A95E1F75EC04D875E878D850A
:1046A0009E850E942D21811163CF809195028160AA
:1046B00080939502C8010E94BF204DC07A2DB98A0F
:1046C000A88A6E2D89890E94322186E0F601119216
:1046D0008A95E9F71BC0EE2009F461CF4D875E870C
:1046E0008D859E850E942D21F82E882309F457CFB1
:1046F00086E0F801A0E9B2E001900D928A95E1F719
:1047000080E992E00E946A1D0E9480210E9472212D
:1047100022C04D875E878D859E850E949426292F15
:1047200022952F70223028F49F7039F0811105C036
:104730000BC0243028F49F7049F4805E883020F04C
:10474000C8010E94BF209F2CF92C05C0F80195815B
:10475000907F99F7F9CF8F2D61960FB6F894DEBF51
:104760000FBECDBFDF91CF911F910F91FF90EF90C2
:10477000DF90CF90BF90AF909F9008951F93CF93FD
:10478000DF93CDB7DEB72C970FB6F894DEBF0FBE20
:10479000CDBF4F83588769877A878B879C87CE01E7
:1047A00007960E94EC218823D1F09F8188852A8575
:1047B0003B85232B31F08F3F31F481E09F3F19F48B
:1047C00003C081E001C080E080FD47C04F81588573
:1047D00069857A858B859C850E9441213EC086E053
:1047E000FE013796DE01119601900D928A95E1F750
:1047F000FF81E8856A857B856115710531F0EF3FA2
:1048000031F481E0FF3F19F403C081E001C080E092
:1048100080FD23C020915F0230E0C90101968770BE
:10482000992740915E0250E084179507F1F1F983D2
:10483000EA837D836C8396E0929FD001939FB00DB5
:104840001124A05ABD4FFE01319601900D929A9508
:10485000E1F780935F020E94512116E080915E0291
:1048600090915F02891771F1189FC0011124805A3D
:104870009D4F0E94EC21882329F1E0915E021E9F4A
:10488000F0011124E05AFD4F408151816281738112
:10489000848195810E94412180915E0290E0019681
:1048A0008770992780935E02D9CF0E9405211092CC
:1048B0005F0210925E02E0E9F2E086E0DF011D9205
:1048C0008A95E9F72C960FB6F894DEBF0FBECDBFE0
:1048D000DF91CF911F910895EF92FF920F931F9355
:1048E000CF93DF938C01892B09F46CC0F12CEE245B
:1048F000E394E8012196F8018491843740F48430F0
:1049000008F051C0813081F0823019F15BC08537E9
:1049100009F444C0A8F19CE7980F903708F052C002
:104920008F770E94121E41C00E5F1F4FFE018491BF
:1049300090E2980F983050F48770FE2D01C0FF0F61
:104940008A95EAF78F2F0E94F62614C00E94701DE8
:104950002DC00E5F1F4FFE01849190E2980F98309A
:1049600060F48770FE2D01C0FF0F8A95EAF78F2F44
:104970000E94FC260E94212719C00E94121E16C008
:104980000E5F1F4FFE01C491CC2381F08FE99FE0A1
:104990000197F1F700C00000C150F6CF0E5F1F4F26
:1049A000FE01F49003C00E94701D8E018F2D88239C
:1049B00009F49FCFEFE9FFE03197F1F700C0000065
:1049C0008150F5CFDF91CF911F910F91FF90EF9024
:1049D0000895089508950C94EA240C94EB240E9401
:1049E000ED246093C2027093C3028093C40290933B
:1049F000C5020C94EF200C94EF240F931F930091A9
:104A0000C2021091C3022091C4023091C502602BF2
:104A1000712B822B932B1F910F910C94EF240F93EA
:104A20001F930091C2021091C3022091C4023091E1
:104A3000C50260237123822393231F910F910C944D
:104A4000EF240F931F930091C2021091C302209193
:104A5000C4023091C50260277127822793271F91D6
:104A60000F910C94EF240C94EA240E943325609358
:104A7000BE027093BF028093C0029093C1020C9457
:104A8000EF2060E070E0CB010C9435250F931F936D
:104A900041E050E060E070E08A019B0104C0000F3B
:104AA000111F221F331F8A95D2F7C901B8011F9128
:104AB0000F910C9435250F931F9341E050E060E077
:104AC00070E004C0440F551F661F771F8A95D2F708
:104AD0008091BE029091BF02A091C002B091C1022C
:104AE0008A019B01082B192B2A2B3B2BC901B801EA
:104AF0001F910F910C9435250F931F9341E050E0C7
:104B000060E070E004C0440F551F661F771F8A9550
:104B1000D2F740955095609570958091BE02909126
:104B2000BF02A091C002B091C1028A019B0108237B
:104B300019232A233B23C901B8011F910F910C941B
:104B400035250F931F9341E050E060E070E004C012
:104B5000440F551F661F771F8A95D2F78091BE02BA
:104B60009091BF02A091C002B091C1028A019B0145
:104B7000082719272A273B27C901B8011F910F9140
:104B80000C9435250F931F930091BE021091BF0224
:104B90002091C0023091C102602B712B822B932B8C
:104BA0001F910F910C9435250F931F930091BE0216
:104BB0001091BF022091C0023091C1026023712385
:104BC000822393231F910F910C9435250F931F93EC
:104BD0000091BE021091BF022091C0023091C1022B
:104BE00060277127822793271F910F910C943525F9
:104BF0000895292F220F920F990F890FE82FE6951C
:104C0000E695E695877051E001C0550F8A95EAF761
:104C100085E0E89FF0011124EA56FD4F20E030E0E6
:104C200070E04081CB01022E02C0969587950A94D0
:104C3000E2F78170819584278523842781932F5FF4
:104C40003F4F2530310569F70895292F220F920F24
:104C5000990F890F682F669566956695982F9770BE
:104C600085E0689FB001112440E050E080E0FB0146
:104C7000E40FF51FEA56FD4F208130E0092E02C0F7
:104C8000369527950A94E2F721703327042E01C048
:104C9000220F0A94EAF7822B4F5F5F4F4530510590
:104CA00031F70895BF92CF92DF92EF92FF920F9368
:104CB0001F93CF93DF938C01C090BE02D090BF02B0
:104CC000E090C002F090C1028091C2029091C302B4
:104CD000A091C402B091C502C82AD92AEA2AFB2AA7
:104CE000CFE1D0E0D701C6010C2E04C0B695A79540
:104CF000979587950A94D2F780FD04C0219790F785
:104D0000B12C07C0BC2EB8018C2F0E947D070197E3
:104D1000A9F38B2DDF91CF911F910F91FF90EF9011
:104D2000DF90CF90BF900895CF93DF93EC010E9466
:104D30005226BE010E947D07DF91CF9108951F93F7
:104D4000CF93DF93EB0190915D02992321F0CB018A
:104D50000E94942613C0882349F0CB010E9452265A
:104D6000182F682FCE010E94F92504C0CB010E94A4
:104D70002526182FBE01812F0E947D07DF91CF913C
:104D80001F9108958091C602859585958595089512
:104D90008091C602877008959091C602977081E055
:104DA00009F480E008958091D20208959091D20292
:104DB000892B8093D202089580959091D202892305
:104DC0008093D20208951092D20208959091D10258
:104DD000892B8093D102089580959091D1028923E7
:104DE0008093D10208951092D10208959091D0023B
:104DF000892B8093D002089580959091D0028923C9
:104E00008093D00208951092D00208958091C70235
:104E1000089508950C9409270C940A279091C702CD
:104E2000981721F08093C7020C940C270895809165
:104E3000C702882329F01092C70280E00C940C2747
:104E40000895E0912801F09129018091D202808398
:104E5000E0912801F091290190818091D102892B64
:104E60008083E0912801F091290190818091D00206
:104E7000892B80838091C702882381F0E0912801EB
:104E8000F09129019081892B808380912801909154
:104E900029010E94392881110E9417278091280139
:104EA000909129010C94D91B0C94092798E0899FB3
:104EB00090011124262B2093C6020E945B2580912D
:104EC000C6028595859585950C9454271092C60247
:104ED00080E00C9454272091C60280958223809311
:104EE000C602982F977079F430E0482F082E000CF6
:104EF000550B2417350739F08595859585950E94C2
:104F00007C250C94662708959093E3018093E20139
:104F1000089580E090E00E94063221E08C3E9E4F92
:104F200009F020E0822F089582E090E00C94F8319F
:104F300083E090E00C94F831CF9384E090E00E94FD
:104F4000F831C82F81E290E00E94F8312C2F30E038
:104F5000A901582BCA01CF910895CF93C92F682F6B
:104F600084E090E00E940C326C2F81E290E0CF91BF
:104F70000C940C3286E090E00C94F831682F86E0B7
:104F800090E00C940C32AB01BC018FE090E00C94EB
:104F90001E32AB01BC0183E190E00C941E3260E054
:104FA00070E0CB010C94C9276CEE7EEF80E090E0BE
:104FB0000E942A3260E082E090E00E940C3260E0C1
:104FC00083E090E00E940C321092C2021092C30261
:104FD0001092C4021092C50260E084E090E00E944A
:104FE0000C3260E081E290E00E940C3260E085E0EB
:104FF00090E00E940C3260E086E090E00E940C326B
:105000006FEF87E090E00E940C3240E050E0BA0180
:1050100088E090E00E941E3260E08DE090E00E9407
:105020000C3240E050E0BA0188E190E00E941E326C
:1050300060E087E190E00E940C3240E050E0BA016D
:105040008CE190E00E941E3260E080E290E00E94DD
:105050000C3240E050E0BA0188E190E00E941E323C
:105060000C9454060C94D427682F8EE090E00C9496
:105070000C32FC01329697E080E0915029F02191AA
:105080002223D9F38F5FF9CF0895662349F0FC01FD
:10509000329608962191621729F0E817F907D1F79F
:1050A00080E0089581E008959C01FC0132969FEF15
:1050B00080E04191461789F09F3F19F4411101C0EA
:1050C000982F8F5F8630A9F79F3F39F0F901E90FDC
:1050D000F11D97FDFA956283089508959C012A5F5A
:1050E0003F4FFC014281461301C012820196821794
:1050F0009307B9F708950C9454280C946E280296DF
:1051000026E0FC0111922A95E9F7089508950C9480
:1051100086280C948628CF930E9489280E94480AEA
:105120000E948728C0E08C2F0E946609811104C06C
:10513000CF5FCA30C1F701C081E0CF9108950C94D0
:1051400086280C949F280E94A12880912C038430EB
:1051500061F11092D40220E488E190E00FB6F89457
:10516000A895809360000FBE2093600080E00E94AD
:105170003F1780E00E9455070E94A12883B7817FD6
:10518000846083BF83B7816083BF7894889583B739
:105190008E7F83BF0FB6F894A895809160008861D8
:1051A00080936000109260000FBE08950C948628D2
:1051B0000E9405210E94C4150E94CD1B0E94550724
:1051C0000C94D6281F920F920FB60F9211248F9332
:1051D0009F93AF93BF938091D402811113C08091AC
:1051E000220390912303A0912403B09125034196BB
:1051F000A11DB11D8093220390932303A093240348
:10520000B0932503BF91AF919F918F910F900FBEE7
:105210000F901F90189582E084BD93E095BD9AEFA2
:1052200097BD80936E0008952FB7F8948091220364
:1052300090912303A0912403B09125032FBF0895DB
:105240009C014FB7F8948091220390912303A09181
:105250002403B09125034FBF821B930B08957894CC
:105260001F920F920FB60F9211248F939F93AF93BB
:10527000BF938091220390912303A0912403B091C6
:1052800025030196A11DB11D809322039093230352
:10529000A0932403B0932503BF91AF919F918F9169
:1052A0000F900FBE0F901F90189587E797E7909388
:1052B0000108809300089AE088E10FB6F894A89559
:1052C000809360000FBE90936000FFCF0E948927FB
:1052D000811102C00E9432280E9494278093D30239
:1052E0000E949C2790932703809326030E9498276F
:1052F000682F70E080E090E00E94FB246091BE0285
:105300007091BF028091C0029091C1020C9433252C
:105310008091E002089508959FB7F8941092D70203
:105320009FBF90912C03943009F057C09091E900F1
:105330009F703091EC00232F217030FD20E8922BDC
:1053400023E02093E9002091EB0020FF43C020914F
:10535000EE0027FF3FC02091D502222321F02091AB
:10536000E80025FF37C01092D50226E03091E80012
:1053700035FD15C030912C03343061F53091EB00D0
:1053800035FD28C0215021F481E08093D50222C050
:10539000EFE9FFE03197F1F700C00000E7CF80931D
:1053A000F1008091E80085FD0AC08091E80080FF4F
:1053B000FCCF8091E8008E778093E80006C08FB71D
:1053C000F89421E02093D7028FBF9F709093E9005B
:1053D00080E008959F709093E9008FEF0895CF9338
:1053E000DF9300D01F92CDB7DEB790912C0394309D
:1053F00019F589837B836A8382E08093E9008FEFCC
:105400009091E800815095FD06C095ED9A95F1F7D1
:1054100000008111F5CF8091E80085FF0DC040E0CC
:1054200050E063E070E0CE0101960E94472C80912D
:10543000E8008E778093E8000F900F900F90DF9137
:10544000CF910895BC0184E00C94EF29BC0183E066
:105450000C94EF29CF93DF9321E02093E9002FEF05
:105460003091E800215035FD06C035ED3A95F1F751
:1054700000002111F5CF2091E80025FF14C0EC01B8
:1054800040E050E068E070E00E94472C8091E80026
:105490008E778093E80088E0FE01A8EDB2E00190ED
:1054A0000D928A95E1F7DF91CF91089588E799E011
:1054B0000E94B20580912B03811109C00E94D82D52
:1054C0000E94352E8091E20084608093E20008956E
:1054D00084E799E00E94B20510922B03089580E7BB
:1054E00099E00C94B2058CE699E00C94B20588E63C
:1054F00099E00E94B2050C94D8282091D6022F5F23
:10550000822F62E30E94F430992319F02093D6028F
:1055100008951092D6028091D702882371F180916C
:105520002C03843041F58091E9008F702091EC00CC
:10553000922F917020FD90E8892B93E09093E900E1
:105540009091EB0090FF14C09091EE0097FF10C077
:105550009091E80095FF03C01092F100F9CF90916F
:10556000E80090FF05C09091E8009E779093E800D6
:105570008F708093E9001092D702089542E061ECA9
:1055800081E00E94512D42E261EC82E00E94512DA7
:1055900042E261EC83E00C94512D80912E03833024
:1055A00009F460C030F4813071F0823009F499C0A0
:1055B00008958A3009F485C08B3009F46BC08930B6
:1055C00009F0A7C020C080912D03813A09F0A1C045
:1055D0008091E800877F8093E8008091310390916B
:1055E0003203892B21F468E088ED92E003C060E08B
:1055F00080E090E070E00E94922C8091E8008B7730
:105600008093E800089580912D03813209F081C0D4
:105610008091310390913203029708F07AC0809113
:10562000E800877F8093E8008091E80082FD05C054
:1056300080912C038111F8CF6CC02091F3008091F0
:10564000F20090E0922B029729F48091F1008B7F79
:10565000813021F48091F1008093E0028091E80094
:105660008B7753C080912D03813A09F052C080910D
:10567000310390913203892B09F04BC08091E800EF
:10568000877F8093E8008091E80080FFFCCF8091C5
:10569000340136C080912D038132D9F580913103D8
:1056A00090913203892BA9F58091E800877F809340
:1056B000E8000E94862D80912F03809334010C9482
:1056C000052180912D03813221F58091E800877FAB
:1056D0008093E8000E94862D809130038093E10240
:1056E000089580912D03813AA1F48091E800877F8D
:1056F0008093E8008091E80080FFFCCF8091E10278
:105700008093F1008091E8008E778093E8000C94FC
:10571000862D089584B7877F84BF0FB6F894A89527
:1057200080916000886180936000109260000FBEDD
:1057300090E080E80FB6F894809361009093610048
:105740000FBE0E94641C0E94D82D0E94352E8091AD
:10575000E20084608093E2008CE899E20E94842752
:1057600078940E94C9300E946A1C8AE291E00E94EB
:10577000C81B87E599E00E94B20580912C03853013
:1057800089F483E599E00E94B2050E94A3288091E4
:105790002A03882391F30E948B28882371F30E94A7
:1057A000312CEBCF0E949E1C0E94581C0E94571C5B
:1057B000E4CF0C94DB2B292F332723303105C9F09C
:1057C00060F42130310581F02230310509F041C00B
:1057D0008BE590E028EB39E040C021323105E1F063
:1057E0002232310531F135C082E190E023E13AE027
:1057F00034C099278130910549F028F0029749F586
:10580000ECE7F9E005C0E4EBF9E002C0E4EAF9E016
:10581000849190E09F0121C063307105D0F4660F40
:10582000771FFB01E552FE4F2081318189E090E036
:1058300014C06330710568F4FB01EE0FFF1FEB52DB
:10584000FE4F20813181FB01EE52FE4F808190E0BE
:1058500004C080E090E020E030E0FA013183208352
:10586000089580E189BD82E189BD09B400FEFDCFC4
:105870008091D8008F7D8093D8008091E000826075
:105880008093E0008091E00081FDFCCF0895CF92ED
:10589000DF92EF92FF920F931F93CF93DF93EC0170
:1058A0008B017A010E94A52D811133C0E114F1040E
:1058B00039F0F70180819181081B190BC80FD91F9E
:1058C000C12CD12C0115110519F18091E80085FD3D
:1058D00016C08091E8008E778093E800E114F1040F
:1058E00049F0F70180819181C80ED91ED182C08212
:1058F00085E00FC00E94A52D882321F30AC089915D
:105900008093F10001501109FFEFCF1ADF0ADACFBF
:1059100080E0DF91CF911F910F91FF90EF90DF908A
:10592000CF90089520913303309134032617370721
:1059300048F06115710539F42091E8002E77209325
:10594000E80001C0B901FC0120E06115710579F1A1
:1059500080912C038823F1F18530F1F18091E800EA
:1059600083FD3CC08091E80082FD2EC08091E8005C
:1059700080FFEBCF2091F3008091F20090E0922B1A
:105980006115710551F08830910538F4219120930B
:10599000F100615071090196F3CF21E0089709F0F9
:1059A00020E08091E8008E778093E800CECF21112F
:1059B000CFCF0AC080912C03882361F0853061F03D
:1059C0008091E80083FD0AC08091E80082FFF2CF59
:1059D00080E0089582E0089583E0089581E00895CD
:1059E00020913303309134032617370748F06115AF
:1059F000710539F42091E8002E772093E80001C06A
:105A0000B901FC0120E06115710591F180912C0331
:105A1000882309F440C0853009F43FC08091E80034
:105A200083FD3DC08091E80082FD2FC08091E80099
:105A300080FFE9CF2091F3008091F20090E0922B5B
:105A40006115710559F08830910540F42491209337
:105A5000F1003196615071090196F2CF21E008976B
:105A600009F020E08091E8008E778093E800CBCFAA
:105A70002111CCCF0AC080912C03882361F085309E
:105A800061F08091E80083FD0AC08091E80082FF08
:105A9000F2CF80E0089582E0089583E0089581E0E8
:105AA0000895982F973068F59093E900981739F08A
:105AB0007091EC002091ED005091F00003C0242F74
:105AC000762F50E021FD02C09F5FECCF3091EB00BC
:105AD0003E7F3093EB003091ED003D7F3093ED0041
